:020000040800F2
:10000000407300202903000849820008D54A0008EF
:1000100045820008AD08000871BE0008000000001D
:10002000000000000000000000000000690200085D
:10003000B70A000800000000C5020008618B000834
:100040004303000843030008430300084303000878
:100050004303000843030008430300084303000868
:100060004303000843030008430300084303000858
:100070007D09000843030008430300084303000808
:100080004303000843030008430300084303000838
:10009000C90800084303000843030008430300089D
:1000A0004303000843030008430300084303000818
:1000B0004303000843030008430300084303000808
:1000C00043030008430300084303000843030008F8
:1000D000430300084303000843030008E5950008B4
:1000E00043030008430300084303000843030008D8
:1000F000430300085D8C0008430300084303000825
:1001000043030008430300084303000843030008B7
:1001100043030008430300084303000843030008A7
:10012000430300088D090008430300084303000847
:100130004303000843030008430300084303000887
:10014000D9080008430300084303000843030008DC
:10015000430300089D09000843030008F5950008C3
:100160004303000843030008430300084303000857
:10017000430300084D82000843030008000000000C
:10018000430300084303000800F002F800F05CF8A5
:100190000AA090E8000C82448344AAF10107DA45E2
:1001A00001D100F051F8AFF2090EBAE80F0013F0D8
:1001B000010F18BFFB1A43F001031847EC100100B0
:1001C0000C1101000A444FF0000C10F8013B13F031
:1001D000070408BF10F8014B1D1108BF10F8015BA0
:1001E000641E05D010F8016B641E01F8016BF9D193
:1001F00013F0080F1EBF10F8014BAD1C0C1B09D1EA
:100200006D1E58BF01F801CBFAD505E014F8016B5B
:1002100001F8016B6D1EF9D59142D6D370470000ED
:100220000023002400250026103A28BF78C1FBD8FF
:10023000520728BF30C148BF0B6070471FB510F090
:10024000F3FA1FBD10B510BD00F096F91146FFF787
:10025000F5FF0EF039F900F0B4F903B4FFF7F2FF3F
:1002600003BC00F0B7F900002C4B19680868B0E82F
:10027000F04F80F30988BFF36F8F4FF0000080F3D9
:10028000118870470000000008480068006880F38B
:1002900008884FF0000080F3148862B661B6BFF39F
:1002A0004F8FBFF36F8F00DF00BF00BF08ED00E08E
:1002B000DFF80C00016841F470010160704700BF75
:1002C00088ED00E0EFF30980BFF36F8F134B1A68DE
:1002D0001EF0100F08BF20ED108A20E9F04F1060CB
:1002E00009B44FF0500080F31188BFF34F8FBFF374
:1002F0006F8F0FF093FE4FF0000080F3118809BC60
:1003000019680868B0E8F04F1EF0100F08BFB0EC95
:10031000108A80F30988BFF36F8F70478800002030
:10032000EFF30580704700000948804709480047FF
:10033000FEE7FEE7FEE7FEE7FEE7FEE7FEE7FEE795
:10034000FEE7FEE704480549054A064B70470000F2
:10035000498C000889010008406D0020407300208E
:10036000406F0020406F002053EA020C00F06980CB
:100370002DE9F04B4FF00006002B1FBFB3FA83F5B9
:1003800003FA05F424FA05F65E4012BF1643B2FAEA
:1003900082F502FA05F4C5F120051EBF22FA05FC1C
:1003A00044EA0C04203556EA044C4FEA144418BFC2
:1003B000641C4FF000084FF00009904271EB030CF1
:1003C00039D3002919BFB1FA81F701FA07F6B0FA5B
:1003D00080F700FA07F6C7F120071EBF20FA07FCD6
:1003E00046EA0C062037B6FBF4FCA7EB0507103FE6
:1003F00007F01F0BCBF120060CFA0BFB2CFA06F6CC
:1004000044BFB3460026202FA4BF5E464FF0000B2A
:100410005BEA060C08BF4FF0010B19EB0B09ABFBB5
:10042000027C48EB0608C01B06FB02CC0BFB03CC8E
:1004300071EB0C01C1E70B46024641464846BDE858
:10044000F08B13B54FF000004FF00001AFF30080C8
:10045000BDE81C40704710B5203AC0F00B80B1E8F1
:100460001850203AA0E81850B1E81850A0E81850E9
:10047000BFF4F5AF5FEA027C24BFB1E81850A0E8F2
:10048000185044BF18C918C0BDE810405FEA827C0C
:1004900024BF51F8043B40F8043B08BF7047D20723
:1004A00028BF31F8023B48BF11F8012B28BF20F8C4
:1004B000023B48BF00F8012B70474FF000020429AF
:1004C000C0F0128010F0030C00F01B80CCF1040C83
:1004D000BCF1020F18BF00F8012BA8BF20F8022BB7
:1004E000A1EB0C0100F00DB85FEAC17C24BF00F85D
:1004F000012B00F8012B48BF00F8012B70474FF08B
:10050000000200B5134694469646203922BFA0E863
:100510000C50A0E80C50B1F12001BFF4F7AF09076F
:1005200028BFA0E80C5048BF0CC05DF804EB890060
:1005300028BF40F8042B08BF704748BF20F8022BA3
:1005400011F0804F18BF00F8012B704770477047BB
:10055000704710B500F008F8006810BD10B50446EB
:1005600000F002F8046010BD00487047E06C002005
:1005700000487047E06C00207546FFF7F9FFAE4673
:1005800005006946534620F00700854618B020B59F
:10059000FFF7D8FEBDE820404FF000064FF00007FF
:1005A0004FF000084FF0000B21F00701AC46ACE81B
:1005B000C009ACE8C009ACE8C009ACE8C0098D4688
:1005C000704710B50446AFF300802046BDE81040E8
:1005D000FFF743BE01491820ABBEFEE7260002002C
:1005E0007047000010B501221021024801F012FCF2
:1005F00010BD00000000024010B50022102102488A
:1006000001F008FC10BD000000000240704700002F
:1006100010B501221146024801F0FCFB10BD00009C
:100620000004024010B500220121024801F0F2FB53
:1006300010BD000000040240704710B5044603E0FE
:100640004FF47A7000F006F8201EA4F101018CB27C
:10065000F6D110BD70B5034600BF00BF00200022D8
:1006600000BF4FF0E0267569C3EB031674014FF02D
:10067000E026B16910E04FF0E026B06988420BD067
:10068000884202D20E1A324402E02E1A0E4432443C
:100690000146A24200D300E0EDE700BF70BD10B5F7
:1006A0000024FFF7B3FFFFF7C7FF0CF085FB0443FF
:1006B0000CF016FC0443204610BD00002DE9FC415F
:1006C00005460E461746002000900190FFF794FF64
:1006D000922000F0D1F806226946122000F0ACF812
:1006E000FFF780FF9DF80100000200B29DF80010A6
:1006F00040EA010400EE104AB8EEC00A4C48D0EDC2
:10070000000A20EE200A86ED000A9DF80300000290
:1007100000B29DF8021040EA010400EE104AB8EE63
:10072000C00A4348D0ED000A20EE200A86ED010AF7
:100730009DF80500000200B29DF8041040EA010493
:1007400000EE104AB8EEC00A3948D0ED000A20EE9B
:10075000200A86ED020AFFF765FF0822694600209D
:1007600000F06AF8FFF754FF9DF800000F2838D119
:100770009DF80300000200B29DF8021040EA010457
:1007800000EE104AB8EEC00A2A48D0ED000A20EE6A
:10079000200A85ED000A9DF80500000200B29DF8D0
:1007A000041040EA010400EE104AB8EEC00A2148E5
:1007B000D0ED000A20EE200A85ED010A9DF8070021
:1007C000000200B29DF8061040EA010400EE104A53
:1007D000B8EEC00A1748D0ED000A20EE200A85EDD9
:1007E000020AFFF709FFA22000F046F8022269463C
:1007F000222000F021F8FFF7F5FE9DF80000C00070
:100800009DF8011040EA6114B4F5806F02DBA4F595
:10081000006004B200EE104AF8EEC00AB4EE001A0E
:10082000B3EE070A00EE810A87ED000ABDE8FC81FD
:10083000180500201C05002070B506460C4615461C
:1008400046F0800000F018F806E0552000F014F89B
:100850002070641C681EC5B2002DF6D170BD70B545
:1008600004460D4644F0800000F006F8552000F0E4
:1008700003F8287070BD000001B582B04FF47A70A3
:10088000012301AA02A90090024802F021FF9DF86D
:1008900004000EBD9C09002070B505460C46284694
:1008A000FFF7EAFF2046FFF7E7FF70BD00BFFEE756
:1008B00010B50821034803F0FFFB00200149096837
:1008C000C86310BDF409002010B5024800F0E1FB38
:1008D00010BD00004C09002010B5024800F0D9FB03
:1008E00010BD0000740900200346042B15D007DC5E
:1008F0007BB1012B0ED0022B0DD0032B12D10BE0BC
:10090000202B0BD0212B0AD0222B09D0232B09D14D
:1009100007E008E007E006E005E004E003E002E0AD
:1009200001E000E000BF00BF0020704700207047DA
:1009300010B500220449054809F0FDF804490348B0
:1009400009F0EAF8002010BDA0190020C40C002016
:10095000A011002070B504460D462146034809F059
:10096000DBF8024809F0A4F8002070BDC40C002098
:1009700010B503460C460021084610BD10B50248CC
:1009800000F05AFF10BD00005C0B002010B50248BB
:1009900000F052FF10BD0000BC0B002010B5024853
:1009A00000F04AFF10BD00001C0C00200146087832
:1009B00010381823B0FBF3F20848805CC865032A9E
:1009C00005D908686FF30900001D886503E0086811
:1009D0006FF309008865886D70470000A40801085E
:1009E000014600208A6A8B69CBB932B1012A0DD049
:1009F000022A03D0032A10D10EE000BFCB6A03F015
:100A00008073B3F1807F00D1012007E0CB6AB3F19E
:100A1000C07F00D1012001E000E000BF34E08B691D
:100A2000B3F5005F1AD132B1012A07D0022A03D0F0
:100A3000032A11D10AE000BF01200EE0CB6A03F0C7
:100A40008073B3F1807F00D1012006E0CB6AB3F15F
:100A5000C07F00D1012000E000BF15E032B1012AC3
:100A600005D0022A04D0032A0CD103E000BF00BF46
:100A7000012008E0CB6A03F08073B3F1807F00D1DE
:100A8000012000E000BF00BF704730B50468246853
:100A900024F4802405682C60046863608468402C1A
:100AA00004D10468A2600468E16003E00468A16006
:100AB0000468E26030BD704730B5C1B004460D46F1
:100AC00022480560002021498860C860082008612C
:100AD0001F492068884205D14FF482721D4968463B
:100AE000FFF7B9FC1C492068884205D14FF4827297
:100AF0001A496846FFF7AFFCFF208DF8C000FF21C0
:100B00008DF8C1108DF8C2108DF8C3108DF8C41087
:100B10008DF8C5108DF8C610FD218DF8C710012382
:100B200030AA0A49204600F0B4F860B1022330AA86
:100B30000649204600F0ADF828B1042330AA034945
:100B4000204600F0A6F841B030BD0000CC6800207F
:100B500000640040AC66002000680040B0670020E0
:100B600030B5C1B004460D46224805600020214939
:100B70008860C860082008611F492068884205D144
:100B80004FF482721D496846FFF765FC1C492068D6
:100B9000884205D14FF482721A496846FFF75BFC20
:100BA000FF208DF8C000FF218DF8C1108DF8C21014
:100BB0008DF8C3108DF8C4108DF8C5108DF8C610CF
:100BC000FC218DF8C710012330AA0A49204600F005
:100BD00060F860B1022330AA0649204600F059F8B7
:100BE00028B1042330AA0349204600F052F841B04E
:100BF00030BD0000B468002000640040AC660020F6
:100C000000680040B067002072B600BFFEE7000039
:100C1000014890ED690A704700690020014890ED95
:100C2000680A70470069002070B50A480468001D12
:100C30000568001D0668344454B108220649204660
:100C400005F066F8042204491031284605F060F8E2
:100C500070BD0000107AFF1F4A000020014890ED8F
:100C60006A0A70470069002010B5024692F82030E9
:100C7000012B01D0022B06D110684069084314688B
:100C80006061002010BD506A40F480205062012055
:100C9000F8E7F0B504460D461E4694F8207020682B
:100CA0008368A86800B900E000BF012F01D0022FBF
:100CB0007DD103F0806030B903F0006018B903F013
:100CC000805000287ED0C3F301610120884030604D
:100CD000A86860B9B5F800C0E86840EA4C5C2068D4
:100CE00000F5C07000EB0110C0F800C00FE0D5E9BE
:100CF00001C040EACC00D5F80CC040EA0C00D4F8A2
:100D000000C00CF5C07C0CEB011CCCF80000D5F841
:100D100010C0206800F5C07000EB0110C0F804C0DE
:100D2000287D01280ED1206800F5C07000EB01106D
:100D3000406840F4807C206800F5C07000EB011032
:100D4000C0F804C0D079000692F806C040EA0C4012
:100D500092F805C040EA0C2092F804C040EA0C006A
:100D6000D4F800C00CF5C07C0CEB011CCCF80C00D6
:100D7000D078000692F802C040EA0C4092F801C018
:100D800040EA0C2092F800C040EA0C00D4F800C001
:100D90000CF5C07C0CEB011CCCF80800206800F5B9
:100DA000C07000EB0110006840F0010C01E00FE0A2
:100DB00008E0206800F5C07000EB0110C0F800C02A
:100DC0000020F0BD606A40F4001060620120F8E786
:100DD000606A40F4802060620120F2E7F0B50446CA
:100DE0000A4694F82050012D01D0022D7ED14249AF
:100DF00001F50071086840F001000860086820F4FF
:100E00007C5008600868566A40EA06200860107D39
:100E100000F01F06012000FA06F3C8699843C86174
:100E2000A1F50071D069C8B9D1F80C029843C1F896
:100E30000C02908880B2968940EA064601F510704F
:100E4000576940F83760108880B2168940EA064634
:100E500001F51070576900EBC7004660D0690128A2
:100E600019D1D1F80C021843C1F80C02908880B255
:100E7000168840EA064601F51070576940F8376059
:100E8000908980B2168940EA064601F510705769CC
:100E900000EBC7004660906928B9D1F80402984376
:100EA000C1F8040204E0D1F804021843C1F80402B6
:100EB000106928B9D1F814029843C1F8140204E06B
:100EC000D1F814021843C1F81402106A012804D1A1
:100ED000D1F81C021843C1F81C02D1F8000220F01E
:100EE0000100C1F800020020F0BDFFE7606A40F495
:100EF000802060620120F7E700640040704770B511
:100F0000044694F82050012D01D0022D7DD151B915
:100F10002068C06800F0030080B9606A40F40010E7
:100F20006062012070BD2068006900F0030028B9EC
:100F3000606A40F4001060620120F3E7206800F569
:100F4000D87000EB0110006800F004009060906819
:100F500040B9206800F5D87000EB01100068400D22
:100F6000106007E0206800F5D87000EB0110006801
:100F7000C0085060206800F5D87000EB01100068D0
:100F800000F00200D060206800F5D87000EB01107E
:100F9000406800F00F00082802D30820106108E024
:100FA000206800F5D87000EB0110406800F00F00D9
:100FB0001061206800F5D87000EB0110406800F463
:100FC0007F40000A9061206800F5D87000EB0110A6
:100FD0004068000C5061206800F5D87000EB0110EB
:100FE00080681870206800F5D87000EB01108068E8
:100FF00000F47F40000A5870206800F5D87000EBBC
:101000000110806800F47F0000E03CE0000C987064
:10101000206800F5D87000EB01108068000ED870D1
:10102000206800F5D87000EB0110C06818712068C6
:1010300000F5D87000EB0110C06800F47F40000A92
:101040005871206800F5D87000EB0110C06800F4FA
:101050007F00000C9871206800F5D87000EB01103B
:10106000C068000ED87131B92068C06840F0200017
:101070002668F06005E02068006940F020002668DE
:10108000306100204EE7606A40F4802060620120F9
:1010900048E72DE9F05F044600252068466920688E
:1010A000D0F80490206887682068D0F80CA02068E9
:1010B000D0F810B02068D0F8188006F001000028A1
:1010C00055D007F00100C0B101202168886007F009
:1010D000020018B1204600F03EFB0EE007F00400CD
:1010E00010B145F4006508E007F0080010B145F4C0
:1010F000805502E0204600F02DFB07F48070C8B157
:101100004FF480702168886007F4007018B12046A1
:1011100000F023FB0EE007F4806010B145F40055A9
:1011200008E007F4006010B145F4804502E0204675
:1011300000F012FB07F48030C8B14FF48030216812
:10114000886007F4003018B1204600F008FB0EE07C
:1011500007F4802010B145F4004508E007F40020B2
:1011600010B145F4803502E0204600F0F7FA06F0B1
:10117000080038B10AF0100020B145F400751020C5
:101180002168C86006F0040040B10AF0080028B1E8
:1011900008202168C860204600F00CFA06F0020022
:1011A00038B12068C06800F0030010B1204600F09C
:1011B00003FA06F0400038B10BF0100020B145F4FE
:1011C000806510202168086106F0200040B10BF016
:1011D000080028B1082021680861204600F088FA3C
:1011E00006F0100038B12068006900F0030010B16B
:1011F000204600F07EFA06F4003040B109F01000FD
:1012000028B1102021684860204600F073FA06F4E7
:10121000803040B109F0080028B1082021684860FA
:10122000204600F09DFA06F4004088B309F004005F
:1012300078B306F4807020B108F0010008B145F0E1
:10124000010506F4007020B108F0020008B145F075
:10125000020506F4806020B108F0040008B145F0F2
:10126000040506F40060A0B108F0700088B108F031
:101270007000402817D006DC10280BD020280CD096
:10128000302819D10CE0502810D0602814D110E07B
:101290001DE019E045F008050FE045F010050CE0F1
:1012A00045F0200509E045F0400506E045F08005E1
:1012B00003E045F4807500E000BF00BF206880694E
:1012C00020F07000216888610420216848602DB1F9
:1012D000606A284360622046FFF710FEBDE8F09F79
:1012E00070B504460CB9012070BD94F8200010B907
:1012F000204600F0AFF82068006840F00100216847
:10130000086000F08DFD05460DE000F089FD401BF2
:101310000A2808D9606A40F400306062052084F829
:1013200020000120E0E72068406800F0010000286C
:10133000EBD02068006820F002002168086000F00F
:101340006FFD05460DE000F06BFD401B0A2808D933
:10135000606A40F400306062052084F820000120BB
:10136000C2E72068406800F002000028EBD1207E30
:10137000012806D12068006840F0800021680860DC
:1013800005E02068006820F0800021680860607E29
:10139000012806D12068006840F0400021680860FC
:1013A00005E02068006820F0400021680860A07E09
:1013B000012806D12068006840F0200021680860FC
:1013C00005E02068006820F0200021680860E07EC9
:1013D000012806D12068006820F01000216808600C
:1013E00005E02068006840F0100021680860207F58
:1013F000012806D12068006840F0080021680860D4
:1014000005E02068006820F0080021680860607F1F
:10141000012806D12068006840F0040021680860B7
:1014200005E02068006820F0040021680860D4E925
:101430000201084321690843616908436168491E44
:1014400008432168C86100206062012084F8200000
:10145000002049E710B586B00446142101A8FFF723
:101460004EF84E492068884241D14D480068401CE2
:101470004B4908600846006801280FD100BF0020D2
:1014800000904848006840F00070464908600846EF
:10149000006800F00070009000BF00BF00BF002097
:1014A000009040481038006840F008003D4910396D
:1014B00008600846006800F00800009000BF00BF08
:1014C000032001900220029000200390032004904A
:1014D0000920059001A9344800F0A2FB0022052153
:1014E000142000F065FD142000F04EFD54E02F495B
:1014F0002068884250D100BF002000902948006831
:1015000040F08060274908600846006800F080606D
:10151000009000BF00BF22480068401C20490860BE
:101520000846006801280FD100BF002000901D4828
:10153000006840F000701B4908600846006800F031
:101540000070009000BF00BF00BF00200090154851
:101550001038006840F0020012491039086008464F
:10156000006800F00200009000BF00BF6020019002
:10157000022002900020039003200490092005908F
:1015800001A90B4800F04CFB00220521402000F08F
:101590000FFD402000F0F8FC06B010BD00640040D4
:1015A0001000002040380240000C0240006800405B
:1015B000000402407047000070B506464649306896
:1015C000884200D1454C46493068884200D1454C9C
:1015D00004F1C80304F1D00200213046FFF78FFC6C
:1015E000002878D10025D4F8D000113808286BD213
:1015F000DFE800F00405060708090A0B00BF00BF7A
:1016000000BF00BF00BF00BF00BFD4F8D000A0F1F2
:101610001105CA20015DC920005D41EA002044F89F
:101620002500CB20005D0101CC20005D41EA2011A6
:1016300004F1200040F82510CD20015DCC20005D94
:1016400000F00F0041EA002104F1400040F82510AD
:1016500054F825001021DFED240A9FED240A0EF036
:1016600027FB04F1600000EB850080ED000A04F127
:10167000200151F825000C21F3EE0E0ABBEE0E0AF4
:101680000EF016FB04F1800000EB850080ED000AEF
:1016900004F1400151F825000C21F2EE040ABAEEE3
:1016A000040A0EF005FB04F1A00000EB850080EDBC
:1016B000000A04F1EC00405D401CC1B204F1EC00F2
:1016C000415502E007E0FFE700BF00BF02213046BE
:1016D000FFF7CAFA00BF70BD00640040AC6600208E
:1016E00000680040B0670020D00F4940D00F49C0CB
:1016F00070477047704770B5044694F82000012881
:1017000022D1022084F820002068006820F0010027
:101710002168086000F084FB05460DE000F080FBC6
:10172000401B0A2808D9606A40F400306062052036
:1017300084F82000012070BD2068406800F001009E
:101740000028EBD16062F6E7606A40F40020606236
:101750000120F0E770477047704770477047704747
:10176000704770B50446A56D00F05AFB064694F824
:101770003500022808D08020606500BF002084F872
:10178000340000BF012070BD2068006820F0160002
:10179000216808602068406920F080002168486165
:1017A000206C08B9A06C28B12068006820F00800FF
:1017B000216808602068006820F001002168086046
:1017C00010E000F02DFB801B05280BD92020606560
:1017D000032084F8350000BF002084F8340000BFE7
:1017E0000320D0E72068006800F001000028E8D15D
:1017F00094F85C103F208840A860012084F83500F0
:1018000000BF002084F8340000BF00BFBBE70146E2
:1018100091F83500022803D08020486501207047E8
:10182000052081F835000868006820F001000A688A
:1018300010600020F3E70000F8B504460020009097
:101840008C4800684FF41651B0FBF1F7A56D2E6877
:1018500094F85C1008208840304098B120680068F7
:1018600000F0040070B12068006820F004002168D6
:10187000086094F85C1008208840A860606D40F013
:101880000100606594F85C1001208840304068B128
:101890002068406900F0800040B194F85C1001209D
:1018A0008840A860606D40F00200606594F85C10AC
:1018B00004208840304068B12068006800F00200D1
:1018C00040B194F85C1004208840A860606D40F03E
:1018D0000400606594F85C1010208840304078B3B4
:1018E0002068006800F0080050B394F85C101020E5
:1018F0008840A8602068006800F4802080B12068DB
:10190000006800F4002028B9206CC8B12046216C82
:10191000884715E0A06C98B12046A16C88470FE07D
:101920002068006800F4807028B92068006820F002
:10193000080021680860206C10B12046216C88479F
:1019400094F85C10202088403040002865D0206842
:10195000006800F0100000285FD094F85C10202090
:101960008840A86094F83500052828D120680068D0
:1019700020F01600216808602068406920F080008F
:1019800021684861206C08B9A06C28B12068006803
:1019900020F008002168086094F85C103F2088401F
:1019A000A860012084F8350000BF002084F83400CE
:1019B00000BF206D10B12046216D8847F8BD20681A
:1019C000006800F4802080B12068006800F40020E6
:1019D00028B9606C10B12046616C88471DE0E06B4F
:1019E000D8B12046E16B884717E02068006800F412
:1019F000807068B92068006820F0100021680860D5
:101A0000012084F8350000BF002084F8340000BFB6
:101A1000E06B10B12046E16B8847606D38B3606DB4
:101A200000F00100F0B1052084F83500206800685E
:101A300020F001002168086000BF0098401C009061
:101A4000B84200D905E02068006800F001000028D5
:101A5000F3D100BF012084F8350000BF002084F8D6
:101A6000340000BFE06C10B12046E16C884700BF35
:101A7000A4E70000840000202DE9F0410446002581
:101A800000F0CEF9074614B90120BDE8F081606A84
:101A900000B100BF022084F8350000BF002084F8A8
:101AA000340000BF2068006820F001002168086051
:101AB0000AE000F0B5F9C01B052805D920206065B3
:101AC000032084F83500E0E72068006800F001009A
:101AD0000028EED12068056821480540D4E90101BD
:101AE0000843E16808432169084361690843A16923
:101AF0000843E1690843216A08430543606A0428F2
:101B000003D1D4E90B010843054320680560206830
:101B1000456925F00705606A0543606A04280DD110
:101B2000A06A0543E06A48B12046FEF759FF28B194
:101B300040206065012084F83500A6E720684561F3
:101B40002046FEF733FF064694F85C103F2088409D
:101B5000B06000206065012084F83500002094E723
:101B60003F8010F02DE9F04704460D4616461F460B
:101B70004FF00008D4F8589000BF94F834000128C2
:101B800002D10220BDE8F087012084F8340000BFB4
:101B900094F83500012825D1022084F83500002072
:101BA00060653B46324629462046FEF76EFF94F8B4
:101BB0005C103F208840C9F808002068006840F0A9
:101BC000160021680860206C28B12068006840F089
:101BD0000800216808602068006840F00100216862
:101BE000086006E000BF002084F8340000BF4FF01A
:101BF00002084046C6E7000070B5044600F010F940
:101C000006462546681C10B104480078054400BF0C
:101C100000F006F9801BA842FAD370BD80000020B6
:101C2000F8B502460B460025002400200021D6E02E
:101C3000012606FA01F51E6806EA0504AC4274D1D5
:101C40001E7906F00306012E04D01E7906F0030665
:101C5000022E13D190684F000326BE40B0434F00C0
:101C6000DE68BE4030439060506801268E40B0432D
:101C70001E79C6F300168E40304350601E7906F080
:101C80000306032E09D0D0684F000326BE40B043A0
:101C90004F009E68BE403043D0601E7906F00306B8
:101CA000022E13D1CF0802F1200656F827004E0766
:101CB000F70E0F26BE40B0434F07FF0E1E69BE4011
:101CC0003043CF0802F1200646F8270010684F0085
:101CD0000326BE40B0431E7906F003064F00BE4007
:101CE000304310605E6806F44036002E76D000BFA8
:101CF000002600963C4E366846F480463A4F3E60D9
:101D00003E46366806F48046009600BF00BF374E58
:101D10008F0856F827008E07370F0F26BE40B043B6
:101D2000334EB24202D1002624E057E0314EB24297
:101D300001D101261EE0304EB24201D1022619E047
:101D40002E4EB24201D1032614E02D4EB24201D1F3
:101D500004260FE02B4EB24201D105260AE02A4E9E
:101D6000B24201D1062605E0284EB24201D1072633
:101D700000E008268F073F0FBE4030431B4E8F0800
:101D800046F82700224E3068A0435E6806F48016AD
:101D900006B120431E4E3060361D3068A0435E6899
:101DA00006F4001606B12043194E361D3060184E59
:101DB000361F3068A0435E6806F4003606B1204343
:101DC000134E361F3060361F3068A0435E6806F43D
:101DD000803606B120430E4E083E3060491C102963
:101DE000FFF426AFF8BD0000443802400838014037
:101DF000000002400004024000080240000C0240C3
:101E0000001002400014024000180240001C024072
:101E1000083C01400AB1816101E00B048361704715
:101E200001480068704700007800002003480068FF
:101E30000349097808440149086070477800002088
:101E40008000002010B50D48006840F400700B4978
:101E500008600846006840F4806008600846006832
:101E600040F480700860032000F0E0F80F2000F0DC
:101E700007F800F05FF8002010BD0000003C0240B1
:101E80002DE9F04188B004460027B84600BF002085
:101E900001902348006840F480702149086008469A
:101EA000006800F48070019000BF00BF02A903A881
:101EB00001F05AF8069F1FB901F07EF8054602E0CE
:101EC00001F07AF845001748B5FBF0F0A0F10108E1
:101ED00015481649086040F2E7311448C160C0F85F
:101EE0000480002101618160816101F0ABFD064643
:101EF00096B90E4801F0F4FD06466EB92D2000F0AB
:101F000043F8102C07D2002221462D2000F050F873
:101F10000748046000E00126304608B0BDE8F081C3
:101F20004038024040420F00002000407C0C00205E
:101F30007C00002008B500BF002000901148006818
:101F400040F480400F4908600846006800F4804073
:101F5000009000BF00BF00BF00200090081F006875
:101F600040F08050091F08600846006800F080506B
:101F7000009000BF00BF00220F21901E00F018F853
:101F800008BD0000443802400146084600280DDB29
:101F900000BF00BF00F01F0301229A4043099B00CD
:101FA00003F1E023C3F8002100BF00BF00BF70476A
:101FB0002DE9F05F80460D461646002709F06EFFBA
:101FC000074639462A46334601F00700C0F1070AA2
:101FD000BAF1040F02D94FF0040A01E0C0F1070A78
:101FE000D14600F1040ABAF1070F02D24FF0000AFD
:101FF00001E0A0F1030AD4464FF0010A0AFA09FAF7
:10200000AAF1010A0AEA020A0AFA0CFA4FF0010BD5
:102010000BFA0CFBABF1010B0BEA030B4AEA0B04C6
:102020002146404609F042FFBDE8F09F00BF00F0A6
:102030000702064B19684FF6FF031940044B0B4388
:1020400043EA0221014B196000BF70470CED00E02C
:102050000000FA0570470246106841620020704790
:10206000F0B5034615461868446A21B944EA0540AC
:102070001E68B06219E01868806A04EB1044002200
:1020800008E0186800F5827050F8220004EB104454
:10209000501CC2B2481E9042F3D844EA0547186863
:1020A00000F582704E1E40F826700020F0BD10B57D
:1020B0000446D4F8E00408F03FFA10BD70B50446B9
:1020C0000D4605EBC50304F1140101EB8301CA6859
:1020D0002946D4F8E00408F022F970BD70B5044632
:1020E0000D4605EBC50304F5157101EB8301CA68C4
:1020F0002946D4F8E00408F09AF970BD10B50446FA
:10210000D4F8E00408F01BFA10BD2DE9F0410446B4
:102110000D4605F08000802808D105F00F0000EB87
:10212000C00104F1140000EB810607E005F00F0088
:1021300000EBC00104F5157000EB81063146206804
:1021400009F058FC07463846BDE8F08170B50446F2
:102150000E4606F0800080280AD106F00F0000EB42
:10216000C00104F1140000EB81050120687009E052
:1021700006F00F0000EBC00104F5157000EB8105BF
:102180000020687006F00F00287000BF94F89404D7
:10219000012801D1022070BD012084F8940400BF01
:1021A0002946206808F0B4FF00BF002084F894049A
:1021B00000BF00BFEFE770B504460E4606F00F0003
:1021C0002179884201D9012070BD06F08000802865
:1021D0000AD106F00F0000EBC00104F1140000EB7F
:1021E00081050120687009E006F00F0000EBC001D6
:1021F00004F5157000EB8105002068700020A870C0
:1022000006F00F00287000BF94F89404012801D153
:102210000220D9E7012084F8940400BF29462068F1
:1022200009F074F900BF002084F8940400BF00BFD7
:10223000CAE7024601F00F0000EBC00302F515707B
:1022400000EB8300406970472DE9F04705460E46D4
:1022500090461F464FF0000906F0800080280AD102
:1022600006F00F0000EBC00105F1140000EB810443
:102270000120607009E006F00F0000EBC00105F5D9
:10228000157000EB81040020607006F00F002070D4
:10229000C8F30A00A0602771607808B120786083D5
:1022A000022F01D10020607100BF95F8940401282D
:1022B00002D10220BDE8F087012085F8940400BF18
:1022C0002146286808F030FE00BF002085F89404FD
:1022D00000BF4846EEE72DE9F04105460E46174699
:1022E000984606F00F0000EBC00105F5157000EBF5
:1022F0008104E760C4F8108000206061607006F01F
:102300000F002070A879012800D1E761AA79214641
:10231000286809F08FF90020BDE8F08170B5044607
:102320000D4605F00F002179884201D9012070BDCA
:1023300005F0800080280AD105F00F0000EBC001F5
:1023400004F1140000EB81060120707007E005EB3A
:10235000C50104F5157000EB8106002070700120A6
:10236000B07005F00F00307000BF94F8940401289D
:1023700001D10220DBE7012084F8940400BF31463C
:10238000206809F00AF905F00F0028B9A17904F2D4
:102390009C42206809F082F800BF002084F8940471
:1023A00000BF00BFC3E72DE9F04105460E461746C2
:1023B000984606F00F0000EBC00105F1140000EB99
:1023C0008104E760C4F81080002060610120607023
:1023D00006F00F002070A879012800D1E761AA79E2
:1023E0002146286809F026F90020BDE8F0812DE992
:1023F000FE4F0446D4F800B05E46206809F0DCFBCE
:10240000002874D1206809F016FC08B9BDE8FE8FD9
:1024100040F608008059C0F30D20C4F8D4042068A9
:1024200009F009FC00F00200022805D1206840698B
:1024300000F0020021684861206809F0FCFB00F010
:102440001000102845D12068806920F01000216814
:102450008861DBF8209009F00F0000EBC00104F563
:10246000157000EB810AC9F3434002281AD147F6E0
:10247000F07009EA000030B3C9F30A125846DAF8DE
:102480000C1009F0DDFBC9F30A11DAF80C0008445E
:10249000CAF80C00C9F30A11DAF814000844CAF8A3
:1024A000140010E0C9F3434006280CD1082204F2BE
:1024B0009C41584609F0C4FBC9F30A11DAF814002C
:1024C0000844CAF814002068806940F010002168B0
:1024D0008861206809F0AFFB00F40020B0F5002F00
:1024E0007BD10025206809F076FB029072E0E1E2E2
:1024F000029800F00100002868D0E9B2206809F0D5
:102500008DFB804608F0010048B1012106F53060DE
:1025100000EB451081602946204605F0D1FE08F009
:102520000800082809D1082106F5306000EB4510A5
:1025300081602946204605F091FE08F01000102821
:1025400005D1102106F5306000EB4510816008F0E0
:102550000200022824D1DBF8140000F0800080285B
:1025600007D140F60400805940F4806140F6040031
:10257000815105EBC50104F5157000EB810A9AF84D
:102580000300012806D100208AF80300E9B22046A2
:1025900000F09BFA022106F5306000EB45108160E7
:1025A00008F02000202805D1202106F5306000EB3E
:1025B0004510816008F40050B0F5005F06D14FF47B
:1025C000005106F5306000EB451081606D1C0298EB
:1025D00040080290029800288AD1206809F02BFB5D
:1025E00000F48020B0F5802F7DD1206809F0E9FA51
:1025F000029000259AE0029800F00100002873D0B4
:10260000E9B2206809F0F1FA804608F00100F0B361
:1026100005F00F0101208840019040F634008159F7
:10262000019821EA000040F634018851012106F5A5
:10263000106000EB45108160A079012824D105EBE2
:10264000C50104F1140000EB810005EBC502C1686F
:1026500004F1140000EB82008068014405EBC50220
:1026600004F1140000EB8200C1606DB905EBC501F7
:1026700004F1140000EB8100006928B904F29C42C7
:102680000121206808F00AFFE9B2204600E001E0DD
:10269000FFF714FD08F00800082805D1082106F509
:1026A000106000EB4510816008F01000102805D183
:1026B000102106F5106000EB4510816008F0400025
:1026C000402805D1402106F5106000EB45108160DF
:1026D00008F0020002281DD12946584609F02FFAB9
:1026E00005EBC50101E025E01CE004F1140000EB5E
:1026F000810A9AF80300012806D100208AF8030015
:10270000E9B2204600F0D8F9022106F5106000EB8E
:102710004510816008F08000802803D129462046BA
:1027200005F070FE6D1C0298400802900298002887
:102730007FF461AF206809F07EFA00F00040B0F14C
:10274000004F1CD140F60400805920F0010140F6F2
:102750000400815194F8CC04012807D1002084F8AA
:10276000CC0400212046FFF775FC02E0204600F073
:10277000C7FA2068406900F000402168486120687D
:1027800009F059FA00F40060B0F5006F0ED140F680
:102790000800805900F0010010B1204600F008FB4D
:1027A0002068406900F4006021684861206809F0F1
:1027B00042FA00F48050B0F5805F7ED140F604000C
:1027C000805920F0010140F6040081511021206859
:1027D00009F0B5F9002732E04FF67F3106F51060B9
:1027E00000EB4710816006F5106000EB47100068B1
:1027F00020F4001106F5106000EB471001604FF661
:102800007F3106F5306000EB4710816006F53060DF
:1028100000EB4710006820F4001106F5306000EB73
:102820004710016006F5306000EB4710006840F08B
:10283000006106F5306000EB471001607F1C2079D5
:10284000B842C9D840F61C00805940F0011140F64A
:102850001C008151E07B70B1D6F8840840F00B0178
:10286000C6F8841840F64400805940F00B0140F649
:10287000440081510FE040F61400805942F22B01D0
:10288000084340F614018851081F805940F00B019D
:102890004FF401608151D6F8000820F4FE60C6F8BC
:1028A0000008A17904F29C42206808F0F7FD206836
:1028B000406900F48050216800E000E04861206831
:1028C00009F0B9F900F40050B0F5005F17D12068A5
:1028D00008F092FB206809F05CF9E07100F066FBFB
:1028E0000090E2792068009909F02CFA204600F067
:1028F000EFF92068406900F40050216848612068C1
:1029000009F099F900F00800082808D1204600F0E5
:10291000FEF92068406900F00800216848612068DD
:1029200009F089F900F08000802818D1DBF8180040
:1029300020F08000CBF8180001250DE005EBC50163
:1029400004F5157000EB8100C078012803D1E9B2CD
:102950002046FFF7DAFB6D1C2079A842EED82068EC
:1029600009F069F900F48010B0F5801F2DD1012520
:1029700022E006F5106000EB4510D0F8009005EB62
:10298000C50104F1140000EB81000079012812D187
:1029900009F00040B0F1004F0DD1012105EBC50257
:1029A00004F1140000EB8200C170E8B240F0800135
:1029B0002046FFF7AAFB6D1C2079A842D9D82068D1
:1029C000406900F4801021684861206809F033F9FB
:1029D00000F40010B0F5001F44D1012538E006F5E1
:1029E000306000EB4510D0F8009005EBC50104F510
:1029F000157000EB81000079012828D109F0004012
:102A0000B0F1004F23D194F8D40400F00100C9F3D1
:102A1000004188421BD1012105EBC50204F5157068
:102A200000EB8200C170DBF8180040F08000CBF8AA
:102A30001800DBF8140000F0800040B940F60400F4
:102A4000805940F4007140F60400815103E06D1C90
:102A50002079A842C3D800BF2068406900F4001064
:102A600021684861206809F0E6F800F08040B0F184
:102A7000804F08D12046FFF71AFB2068406900F01C
:102A8000804021684861206809F0D5F800F0040012
:102A900004280FD12068D0F8049009F0040004281D
:102AA00002D12046FFF72AFB2068406840EA09006F
:102AB0002168486000BFA9E470B504460D46294668
:102AC000D4F8E00407F0ACFD70BD70B504460D46C7
:102AD0002946D4F8E00407F0C7FD70BDF8B50446F8
:102AE0000CB90120F8BD266894F8950428B9002097
:102AF00084F89404204600F0A1F8032084F895049B
:102B0000B6F1A04F01D10021A171206808F0BEFCF0
:102B1000207C8DF8000094E80F0008F081FA20B1C5
:102B2000022084F895040120DCE70021206809F0E8
:102B3000B7F820B1022084F895040120D2E70025DF
:102B400031E0012105EBC50204F1140000EB820025
:102B5000417005EBC50104F1140000F8215005EBAC
:102B6000C50100EB81004583002105EBC50204F19E
:102B7000140000EB8200017105EBC50204F11400A2
:102B800000EB8200816005EBC50204F1140000EB4C
:102B90008200C16005EBC50204F1140000EB820065
:102BA0000161681CC5B22079A842CADC00252AE070
:102BB000002105EBC50204F5157000EB82004170A1
:102BC00005EBC50104F5157000F82150002105EB57
:102BD000C50200EB8200017105EBC50204F515701A
:102BE00000EB8200816005EBC50204F5157000EB77
:102BF0008200C16005EBC50204F5157000EB820090
:102C00000161681CC5B22079A842D1DC207C8DF816
:102C1000000094E80F0008F045FB20B1022084F882
:102C2000950401205EE700206074012084F895047B
:102C3000206808F025FB002054E7000010B586B09E
:102C40000446142101A8FDF75AFC1E492068884259
:102C500036D100BF002000901B48006840F0020001
:102C6000194908600846006800F00200009000BFA3
:102C700000BF4FF4404001900220029000200390DA
:102C8000032004900C20059001A91048FEF7C8FF0E
:102C900000BF002000900C48006840F000500A4936
:102CA00008600846006800F00050009000BF00BFB8
:102CB000002205214D20FFF77BF94D20FFF764F935
:102CC00006B010BD0000044030380240000402404D
:102CD00070B504460125E07908B9002506E0E079E1
:102CE000022801D1012501E0FDF78EFF2946D4F825
:102CF000E00407F063FDD4F8E00407F009FD70BDBF
:102D000010B50446D4F8E00407F039FD10BD10B545
:102D10000446D4F8E00407F03DFD10BD70B504464C
:102D20000D4600BF94F89404012801D1022070BD23
:102D3000012084F8940400BF65742946206808F0D7
:102D4000E3FF00BF002084F8940400BF00BFEEE75B
:102D500010B5044604F29C41D4F8E00407F045FDA8
:102D600010BD70B50446256800BF94F8940401288E
:102D700001D1022070BD012084F8940400BFE868EE
:102D800000F0400030B1607B012803D1A86B40F413
:102D90008030A863206808F0A3FE206808F05EFA7F
:102DA00000BF002084F8940400BF00BFE2E70000E9
:102DB00010B50446D4F8E00407F074FD2068D0F89C
:102DC000000E40F001002168C1F8000EE07A28B141
:102DD0000348006840F006000149086010BD00008B
:102DE00010ED00E070B504460D460CB9012070BD31
:102DF0005848006800F00700A84209D255490D70F4
:102E00000846006800F00700A84201D00120EEE764
:102E1000207800F0020002281DD1207800F0040084
:102E2000042805D14C48006840F4E0504A49086045
:102E3000207800F00800082805D14748006840F4D1
:102E40006040454908604448006820F0F000A168EF
:102E5000084341490860207800F00100A8B3606889
:102E6000012807D13C4808380068C0F34040B8B991
:102E70000120BCE76068022802D06068032807D1FF
:102E8000354808380068C0F3406048B90120AEE713
:102E9000314808380068C0F3400008B90120A6E7AF
:102EA0002D48006820F00300616808432A49086043
:102EB000FEF7B6FF064609E0FEF7B2FF801B41F2BF
:102EC0008831884202D9032091E707E02248006850
:102ED00000F00C006168B0EB810FEDD11D48006877
:102EE00000F00700A84209D91A490D700846006889
:102EF00000F00700A84201D0012078E7207800F018
:102F00000400042807D11448006820F4E050E16868
:102F1000084311490860207800F00800082808D10B
:102F20000D48006820F46040216940EAC1000A4968
:102F3000086000F061F808490968C1F30311074A05
:102F4000515CC8400649086006480068FEF798FFD3
:102F500000204CE7003C024008380240AC08010861
:102F6000840000207C0000200F2202600D4A1268BD
:102F700002F0030242600B4A126802F0F002826023
:102F8000084A126802F4E052C260064A126802F46B
:102F90006042D2080261044A126802F007020A6025
:102FA0007047000008380240003C024001480068B9
:102FB000704700008400002000B5FFF7F7FF0449C8
:102FC0000968C1F38221034A515CC84000BD00007A
:102FD00008380240BC08010800B5FFF7E7FF0449C4
:102FE0000968C1F34231034A515CC84000BD00008A
:102FF00008380240BC0801082DE9F04700240025EC
:103000000026A1462548006800F00C0020B10428E5
:1030100005D008283AD105E0DFF8849039E0DFF8E0
:10302000849036E01D48001F006800F03F041B48F4
:10303000001F006800F4800078B11A481749091F82
:103040000968C1F38811A0FB0170014622460023E4
:103050003846FDF789F905460EE011480F49091F6A
:103060000968C1F38811A0FB0170014622460023C4
:103070003846FDF779F905460848001F0068C0F397
:103080000140401C4600B5FBF6F902E0DFF8109065
:1030900000BF00BF4846BDE8F08700000838024086
:1030A0000024F400001BB700F8B504460CB9012059
:1030B000F8BD207800F00100002874D0F9480068BD
:1030C00000F00C0004280DD0F648006800F00C0059
:1030D000082813D1F348001F006800F48000B0F501
:1030E000800F0BD1EF4808380068C0F3404000283B
:1030F00059D06068002856D10120D9E700BF606828
:10310000B0F5803F08D1E7480838006840F48030C7
:10311000E449083908601EE06068B0F5A02F0DD1C1
:10312000E0480838006840F48020DE49083908602B
:103130000846006840F4803008600CE0D948083840
:10314000006820F48030D7490839086008460068D4
:1031500020F48020086000BF606890B1FEF760FE38
:10316000054606E0FEF75CFE401B642801D90320FB
:103170009EE7CC4808380068C0F340400028F1D0F2
:1031800011E0FEF74DFE054606E0FEF749FE401B46
:10319000642801D903208BE7C24808380068C0F3CF
:1031A00040400028F1D1207800F0020002285FD1D1
:1031B000BC48006800F00C0058B1BA48006800F044
:1031C0000C0008281CD1B748001F006800F48000DC
:1031D000B0B9B44808380068C0F3400020B1E068D6
:1031E000012801D0012063E7AE480838006820F0CC
:1031F000F800216940EAC100AA490839086037E0AF
:10320000E06800B30120A8490860FEF709FE054602
:1032100006E0FEF705FE401B022801D9032047E720
:10322000A04808380068C0F340000028F1D09D484D
:103230000838006820F0F800216940EAC100994987
:103240000839086014E0002097490860FEF7E8FD9F
:10325000054606E0FEF7E4FD401B022801D90320E5
:1032600026E7904808380068C0F340000028F1D1F4
:10327000207800F0080008282CD16069A8B101204E
:103280008A490860FEF7CCFD054606E0FEF7C8FD5A
:10329000401B022801D903200AE782486C300068ED
:1032A000C0F340000028F1D014E000207F490860FE
:1032B000FEF7B6FD054606E0FEF7B2FD401B02280C
:1032C00001D90320F4E677486C300068C0F3400071
:1032D0000028F1D1207800F00400042870D10027E4
:1032E00070483830006800F0805090B900BF00206E
:1032F00000906C483830006840F08050694938319F
:1033000008600846006800F08050009000BF00BFD1
:1033100001276748006800F48070B0B9644800680D
:1033200040F4807062490860FEF77AFD054606E0C9
:10333000FEF776FD401B022801D90320B8E65C4861
:10334000006800F480700028F2D000BFA068012857
:1033500008D154486830006840F001005149683194
:1033600008601DE0A06805280DD14E48683000684F
:1033700040F004004B49683108600846006840F09E
:10338000010008600CE047486830006820F0010048
:103390004449683108600846006820F0040008606D
:1033A00000BFA068A8B1FEF73BFD054609E0FEF7A7
:1033B00037FD401B41F28831884202D9032077E66D
:1033C00026E0384868300068C0F340000028EED09E
:1033D00013E0FEF725FD054608E0FEF721FD401B42
:1033E00041F28831884201D9032061E62D486830D6
:1033F0000068C0F340000028EFD1012F07D1294811
:103400003830006820F0805026493831086000BF0D
:10341000A069002845D02348006800F00C00082867
:103420005DD0A069022845D100201F490866FEF73B
:10343000F7FC054606E0FEF7F3FC401B022801D925
:10344000032035E6174808380068C0F340600028BC
:10345000F1D1D4E907010843616A40EA81110122F0
:10346000A06AC2EB500041EA00412C20005D41EA15
:1034700000600C49091F086001200B490866FEF72F
:10348000CFFC054606E0FEF7CBFC401B022801D925
:1034900003200DE6034808380068C0F340600028A8
:1034A000F1D049E00838024000004742800E474210
:1034B00000700040002021490866FEF7B1FC054677
:1034C00006E0FEF7ADFC401B022801D90320EFE522
:1034D0001B480068C0F340600028F2D12CE0A069CE
:1034E000012800D1E4E51648001D0668A0690128FE
:1034F00020D006F48001E06981421BD106F03F0133
:10350000206A814216D147F6C0703040616AB0EB44
:10351000811F0FD106F440310122A06AC2EB500096
:10352000B1EB004F06D106F070612C20005DB1EBCD
:10353000006F01D00120BBE50020B9E50000474243
:103540000038024010B504460CB9012010BD606A75
:1035500038B96068B0F5827F00D105E00021E161F3
:1035600002E00021216161610021A16294F8510013
:1035700028B9002084F85000204600F047F80220C7
:1035800084F851002068006820F04000216808603D
:10359000A08800F48270218901F404410843A189C4
:1035A00001F400610843217C01F002010843217D00
:1035B00001F001010843218B01F400710843217FD0
:1035C00001F0380108432021095D01F08001084322
:1035D000218D01F400510843216808600421A0698D
:1035E00001EA104094F8241001F01001084321680A
:1035F00048602068C06920F400602168C86100202C
:103600006065012084F8510000209FE710B586B066
:103610000446142101A8FCF772FF2949206888425A
:103620004CD100BF002000902648006840F4805034
:10363000244908600846006800F48050009000BFEC
:1036400000BF00BF002000901E481438006840F002
:1036500002001C49143908600846006800F00200A6
:10366000009000BF00BF00BF002000900846006827
:1036700040F0010008600846006800F0010000907A
:1036800000BF00BF1820019002200290002003908C
:10369000032004900520059001A90B48FEF7C0FA0D
:1036A00080200190022002900020039003200490CB
:1036B0000520059001A90548FEF7B2FA06B010BD35
:1036C0000030014044380240000402400000024043
:1036D0002DE9FE4F04460F4690461D460C9E0120E4
:1036E0000190FEF79DFB814694F851B0606802900E
:1036F000AA46BBF1010F0BD00298B0F5827F04D12E
:10370000A06810B9BBF1040F02D00220BDE8FE8F03
:103710001FB1B8F1000F00D00DB90120F6E700BFCE
:1037200094F85000012801D10220EFE7012084F82D
:10373000500000BF94F85100042802D0052084F8FE
:10374000510000206065C4F83880E587A5872763AD
:10375000E586A586206460642068006800F040006B
:10376000402805D02068006840F0400021680860CB
:10377000E068B0F5006F52D1606810B1BAF1010F86
:1037800009D1206B00882168C860206B801C2063F1
:10379000E08E401EE0863BE02068806800F002007A
:1037A000022810D1E08E70B1019801280BD1206B56
:1037B00000882168C860206B801C2063E08E401E5A
:1037C000E086002001902068806800F0010068B168
:1037D000E08F58B12068C068A16B0880A06B801C86
:1037E000A063E08F401EE08701200190FEF718FBE8
:1037F000A0EB0900B0420BD3701C48B1012084F843
:10380000510000BF002084F8500000BF03207DE776
:10381000E08E0028C0D1E08F0028BDD152E0606862
:1038200010B1BAF1010F09D1206B0078216808733B
:10383000206B401C2063E08E401EE0863CE0206848
:10384000806800F00200022810D1E08E70B101986B
:1038500001280BD1206B007821680873206B401C75
:103860002063E08E401EE086002001902068806882
:1038700000F0010068B1E08F58B12068C068A16B0A
:103880000870A06B401CA063E08F401EE087012001
:103890000190FEF7C5FAA0EB0900B04201D3701CFD
:1038A00000B94EB9012084F8510000BF002084F80F
:1038B000500000BF032029E7E08E0028BFD1E08F31
:1038C0000028BCD14A463146204604F023FF40B1CF
:1038D0002020606500BF002084F8500000BF012058
:1038E00014E7A06850B900BF002000902068C068AD
:1038F000009020688068009000BF00BF012084F81D
:10390000510000BF002084F8500000BF606D08B176
:103910000120FBE60020F9E67047704710B503462A
:10392000002200BF93F83C00012801D1022010BD05
:10393000012083F83C0000BF22F0FF00CC6840EA81
:10394000040222F440708C6840EA040222F4806091
:103950004C6840EA040222F400600C6840EA040269
:1039600022F480500C6940EA040222F400504C69B1
:1039700040EA040222F48040CC6940EA040218685C
:10398000426400BF002083F83C0000BF00BFCEE7C8
:1039900030B502460B4600BF92F83C00012801D129
:1039A000022030BD012082F83C0000BF022082F8D6
:1039B0003D00106844681068816824F0700418683D
:1039C000044310684460184D1068A8421BD010686A
:1039D000B0F1804F17D0154D1068A84213D0144D88
:1039E0001068A8420FD0134D1068A8420BD0124D9A
:1039F0001068A84207D0114D1068A84203D0104D9E
:103A00001068A84205D121F0800158680143106870
:103A10008160012082F83D0000BF002082F83C0058
:103A200000BF00BFBDE700000000014000040040EF
:103A300000080040000C004000040140004001402C
:103A40000018004010B504460CB9012010BD94F8D0
:103A50003D0028B9002084F83C00204600F026F8FC
:103A6000022084F83D00211D206805F003F90120A3
:103A700084F8460000BF84F83E0001213F20015534
:103A8000402001554120015500BF00BF012084F8AE
:103A9000420043200155442001554520015500BFF7
:103AA000012084F83D000020D0E7000008B50A4A54
:103AB000016891420FD100BF0021009107490968B8
:103AC00041F40031054A11601146096801F40031E2
:103AD000009100BF00BF08BD0044014044380240CF
:103AE000014691F83D00012801D0012070470220D5
:103AF00081F83D000868C06840F001000B68D8609C
:103B00001A4B086898421BD00868B0F1804F17D054
:103B1000174B0868984213D0164B086898420FD08C
:103B2000154B086898420BD0144B0868984207D090
:103B3000134B0868984203D0124B086898420CD186
:103B40000868806800F00702062A0CD00868006840
:103B500040F001000B68186005E00868006840F05C
:103B600001000B6818600020C0E700000000014061
:103B70000004004000080040000C00400004014028
:103B80000040014000180040704770B504462068AE
:103B9000C5682068066906F00200022819D105F000
:103BA0000200022815D1401F2168086101202077FA
:103BB0002068806900F0030018B12046FFF7E4FF99
:103BC00005E0204600F04EF9204600F073FA002090
:103BD000207706F00400042819D105F00400042819
:103BE00015D1C043216808610220207720688069D0
:103BF00000F4407018B12046FFF7C6FF05E02046EC
:103C000000F030F9204600F055FA0020207706F049
:103C10000800082819D105F00800082815D1C0436C
:103C200021680861042020772068C06900F0030043
:103C300018B12046FFF7A8FF05E0204600F012F972
:103C4000204600F037FA0020207706F010001028F8
:103C500019D105F01000102815D1C0432168086162
:103C6000082020772068C06900F4407018B1204611
:103C7000FFF78AFF05E0204600F0F4F8204600F048
:103C800019FA0020207706F0010048B105F0010084
:103C900030B16FF0010021680861204600F092FA0F
:103CA00006F08000802809D105F08000802805D129
:103CB000C043216808612046FFF72EFE06F0400051
:103CC000402809D105F04000402805D1C0432168B3
:103CD0000861204600F082FA06F02000202809D171
:103CE00005F02000202805D1C04321680861204646
:103CF000FFF713FE70BD000010B586B00446142116
:103D000001A8FCF7FCFB3449206888421ED100BFA3
:103D1000002000903148006840F008002F490860FA
:103D20000846006800F00800009000BF00BF4FF494
:103D30008040019002200290002003900490022015
:103D4000059001A92648FDF76BFF42E02549206850
:103D500088421DD100BF002000902048006840F03C
:103D600004001E4908600846006800F00400009046
:103D700000BF00BF4020019002200290002003906D
:103D800004900320059001A91748FDF749FF20E0A2
:103D90001649206888421CD100BF002000900F48BF
:103DA000006840F002000D4908600846006800F015
:103DB0000200009000BF00BF881501900220029011
:103DC0000020039004900320059001A90848FDF706
:103DD00027FF06B010BD0000000800403038024048
:103DE000000C024000040140000802400044014071
:103DF000000402402DE9F04104460E461546002716
:103E000000BF94F83C00012802D10220BDE8F081F7
:103E1000012084F83C0000BF35B1042D09D0082DE5
:103E20000CD00C2D14D10EE03146206804F0A4FF14
:103E300010E03146206804F0D7FF0BE031462068DF
:103E400005F010F806E03146206805F047F801E07B
:103E5000012700BF00BF00BF002084F83C0000BF66
:103E60003846D3E7704710B504460CB9012010BDA1
:103E700094F83D0028B9002084F83C00204600F06A
:103E800025F8022084F83D00211D206804F0F2FE90
:103E9000012084F8460000BF84F83E0001213F2045
:103EA0000155402001554120015500BF00BF0120B0
:103EB00084F8420043200155442001554520015516
:103EC00000BF012084F83D000020D0E738B504464B
:103ED0000E492068884217D100BF002000900C488E
:103EE000006840F002000A4908600846006800F0D7
:103EF0000200009000BF00BF00220F212D20FEF71E
:103F000057F82D20FEF740F838BD000000040140AE
:103F1000443802402DE9F04104460D46164600277C
:103F200000BF94F83C00012802D10220BDE8F081D6
:103F3000012084F83C0000BF36B1042E1BD0082EAF
:103F400031D00C2E5ED145E02946206804F014FFE4
:103F50002068806940F008002168886120688069D5
:103F600020F004002168886120688069296908437D
:103F70002168886148E02946206804F035FF206800
:103F8000806940F40060216888612068806920F4BD
:103F900080602168886120688069296940EA012081
:103FA0002168886130E02946206804F05BFF2068C2
:103FB000C06940F008002168C8612068C06920F02D
:103FC00004002168C8612068C06929690843216824
:103FD000C86119E02946206804F080FF2068C069A4
:103FE00040F400602168C8612068C06920F48060E6
:103FF0002168C8612068C069296940EA01202168F8
:10400000C86101E0012700BF00BF00BF002084F8A5
:104010003C0000BF384689E710B504460CB90120C2
:1040200010BD94F83D0028B9002084F83C002046DB
:1040300000F026F8022084F83D00211D206804F0DD
:1040400019FE012084F8460000BF84F83E000121DB
:104050003F200155402001554120015500BF00BFC0
:10406000012084F842004320015544200155452099
:10407000015500BF012084F83D000020D0E700007A
:1040800008B50A4A016891420FD100BF0021009192
:104090000749096841F00401054A116011460968A1
:1040A00001F00401009100BF00BF08BD00080040FE
:1040B000403802407047000070B504460D4615B9FF
:1040C00094F83E000BE0042D02D13F20005D06E095
:1040D000082D02D14020005D01E04120005D012853
:1040E00001D0012070BD1DB9022084F83E000EE011
:1040F000042D03D102213F20015508E0082D03D1F2
:1041000002214020015502E00221412001550122F7
:104110002946206804F01EFE23492068884203D007
:1041200022492068884201D1012000E0002028B106
:104130002068406C40F40040216848641A492068B7
:1041400088421BD02068B0F1804F17D018492068F2
:10415000884213D01749206888420FD0164920683A
:1041600088420BD011492068884207D01349206843
:10417000884203D01249206888420CD120688068A8
:1041800000F00706062E0CD02068006840F0010001
:104190002168086005E02068006840F0010021689F
:1041A000086000209EE7000000000140000401407C
:1041B0000004004000080040000C004000400140A6
:1041C0000018004010B5044603492068884201D118
:1041D000FDF72CFE10BD0000002000407047F8B530
:1041E00004460D46164694F8420020282DD105B10C
:1041F0000EB90120F8BD0120206300206063324623
:104200002946204605F052F90746206B012819D1AE
:1042100000BF00200090206800680090206840687F
:10422000009000BF00BF00BF00BF21680C3151E803
:10423000001F41F0100021680C3141E80002002A03
:10424000F3D100E001273846D4E70220D2E700008E
:1042500070B504460D460C492068884213D12A46A1
:104260000A490B4800F0EAFA084804F00DFB642202
:1042700006490848FFF7B3FF08F052FF06480088D8
:10428000401C0549088070BD00480040DC6B0020E0
:10429000140B0020CC0A0020A405002010B5044611
:1042A0000949206888420DD100BF002084F84000F1
:1042B00000BF64210548FCF722F964220349044841
:1042C000FFF78DFF10BD000000480040DC6B0020B0
:1042D000CC0A00202DE9F84F0446206805682068C4
:1042E000C668206847694FF00009CA4605F00F0903
:1042F000B9F1000F0AD105F0200038B106F0200016
:1043000020B1204604F03DFFBDE8F88FB9F1000F61
:104310007CD007F0010018B906F49070002875D021
:1043200005F0010030B106F4807018B1606C40F007
:104330000100606405F0040030B107F0010018B11D
:10434000606C40F00200606405F0020030B107F0DC
:10435000010018B1606C40F00400606405F00800D2
:1043600048B106F0200010B907F0010018B1606CE8
:1043700040F008006064606C002846D005F0200022
:1043800028B106F0200010B1204604F0FAFE2068A3
:104390004069C0F3801A606C00F0080010B9BAF1EF
:1043A000000F2DD0204604F093FE2068406900F0F5
:1043B0004000402820D100BF00BF2168143151E8DF
:1043C000001F21F040002168143141E80002002A5A
:1043D000F3D100BFE06B50B17F48E16B0865E06B43
:1043E000FDF715FA88B1E06B016D88470DE02046B6
:1043F000FFF754FF09E009E02046FFF74FFF04E014
:104400002046FFF74BFF002060647DE7206B01280A
:1044100078D105F01000002874D006F010000028B4
:10442000FAD000BF0020009020680068009020684B
:104430004068009000BF00BF2068406900F0400065
:10444000402870D1E06B006840681FFA80F8B8F12E
:10445000000F58D0A08D404555DDA4F82E80E06BAC
:10446000C069B0F5807F43D000BF00BF21680C3128
:1044700051E8001F21F4807021680C3141E80002EE
:10448000002AF3D100BF00BF00BF2168143151E8FA
:10449000001F21F001002168143141E80002002AC8
:1044A000F3D100BF00BF00BF2168143151E8001FE5
:1044B00021F040002168143141E80002002AF3D1C4
:1044C00000BF202084F842000020206300BF00BF0E
:1044D00021680C3151E8001F21F0100021680C31D7
:1044E00041E80002002AF3D100BFE06BFDF739F983
:1044F00002206063A08DE28D801A81B22046FFF712
:10450000A7FE0EE052E0A08D40450AD1E06BC069E5
:10451000B0F5807F05D102206063A18D2046FFF7B2
:1045200097FEF1E6FFE7A08DE18D401A1FFA80F8B3
:10453000E08DD0B3B8F1000F37D000BF00BF2168C5
:104540000C3151E8001F21F4907021680C3141E8D2
:104550000002002AF3D100BF00BF00BF2168143160
:1045600051E8001F21F001002168143141E80002E8
:10457000002AF3D100BF202084F8420000202063ED
:1045800000BF00BF21680C3151E8001F21F010006E
:1045900021680C3141E80002002AF3D100BF02205B
:1045A000606341462046FFF753FEADE605F080000C
:1045B00030B106F0800018B1204604F0E3FFA3E616
:1045C00005F0400030B106F0400018B1204604F07C
:1045D000B5FD99E600BF97E6318F000810B5044697
:1045E0000CB9012010BDA06900B100E000BF94F833
:1045F000410028B9002084F84000204600F02AF845
:10460000242084F841002068C06820F4005021680C
:10461000C860204604F034FE2068006920F4904011
:10462000216808612068406920F02A0021684861FB
:104630002068C06840F400502168C86000206064B1
:10464000202084F8410084F842000020606300BF0D
:10465000C8E7000010B586B00446142101A8FBF796
:104660004EFF6B492068884256D100BF0020009061
:104670006848006840F48020664908600846006881
:1046800000F48020009000BF00BF00BF0020009019
:1046900060481038006840F004005E491039086036
:1046A0000846006800F00400009000BF00BF4FF40F
:1046B00040600190022002900020039003200490AB
:1046C0000720059001A95448FDF7AAFA5348544918
:1046D00008604FF000604860002151488160C1606F
:1046E0004FF480610161002141618161C16101621A
:1046F0004162FDF7C1F908B1FCF786FA00BF4848EE
:10470000E063846300BF002205212720FDF750FCF1
:104710002720FDF739FC79E042492068884275D1AD
:1047200000BF002000903B48001D006840F02000C2
:104730003849091D08600846006800F02000009014
:1047400000BF00BF00BF0020009032481038006852
:1047500040F040002F49103908600846006800F01A
:104760004000009000BF00BF4FF484400190022041
:10477000029000200390032004900820059001A9D6
:104780002948FDF74DFA2948294908608005486005
:10479000002127488160C1604FF4806101610021E0
:1047A00041618161C16101624162FDF765F908B152
:1047B000FCF72AFA00BF1E48E063846300BF1B4871
:1047C00078301C4908604FF020604860402119484B
:1047D00081600021C1604FF480610161002141616D
:1047E0008161C16101624162FDF746F908B1FCF7E0
:1047F0000BFA00BF0F48A063846300BF00220521AD
:104800004720FDF7D5FB4720FDF7BEFB06B010BDE6
:104810000048004040380240000802402860024042
:104820005C0B002000140140001802402864024084
:10483000BC0B00201C0C002070477047F7B50446E5
:10484000154694F8410020283ED1019800B10DB9D9
:104850000120FEBD01982062A584E58400206064EB
:10486000212084F841001948A16BC8631848A16B46
:1048700008641848A16BC8640020A16B086501AEEC
:1048800023681A1D31682B46A06BFDF76BF930B118
:1048900010206064202084F841000120D9E76FF0E7
:1048A00040002168086000BF00BF2168143151E852
:1048B000001F41F080002168143141E80002002A05
:1048C000F3D100BF0020C4E70220C2E76B900008CC
:1048D000C3900008438F00087047704710B52948FF
:1048E000008829490988884203D001202749087097
:1048F00020E000202549087025480078012801D1D2
:104900002449087001212448FCF7D6F802212248E6
:10491000FCF7D2F803212048FCF7CEF801211F480C
:10492000FCF7CAF802211D48FCF7C6F803211B4812
:10493000FCF7C2F81348008813490880184890F81B
:104940002000E8B9002011490870012011490870C1
:1049500001211148FCF7B0F802210F48FCF7ACF830
:1049600003210D48FCF7A8F801210C48FCF7A4F836
:1049700002210A48FCF7A0F803210848FCF79CF83C
:1049800010BD0000A4050020A6050020A8050020F9
:10499000820300208F0300204C09002074090020AE
:1049A000A06C002070B5044600202074A37B484D05
:1049B0002D8803FB05F26168D4F8F400FBF74BFD8A
:1049C000A27B434B1B8802FB03F16068FBF797FD5A
:1049D000A27B3F4B1B885A43A37B02FB03F1D4F815
:1049E0001801FBF78CFD227B394B1B885A43A37BB4
:1049F00002FB03F1D4F80C01FBF781FD002031E04C
:104A0000D4F8F41001EB800191ED000AB5EEC00A74
:104A1000F1EE10FA24D0D4F8F41001EB800191EDFE
:104A2000000A227CD4F8F41001EB820181ED000A27
:104A3000227C616A8854A16901EB800191ED000A32
:104A40006169095C227B237C12FB0311491ED4F8A7
:104A50000C2102EB810181ED000A217C491C2174AB
:104A6000411CC8B2A17B8142CADC002011E0626A0D
:104A7000125CE16901EB820191ED000A227C00FBEE
:104A80000202D4F8181101EB820181ED000A411CE9
:104A9000C8B2217C8142EADC207CA4F87800217B2A
:104AA0007A200153207BA4F88000217C82200153CE
:104AB000207CA4F89000217C92200153207BA4F854
:104AC0009800217C9A200153207CA4F8480070BDF6
:104AD0004404002000BFFEE710B586B0044654F839
:104AE000EC0F90ED000A8DED050A206890ED010AAB
:104AF0008DED040A206890ED020A8DED030A54F84A
:104B0000EC0990ED030A8DED020ADDED050A9DED3D
:104B1000051A60EE810A9DED041ADDED041A41EEDE
:104B2000210A9DED031ADDED031A41EE210A9DEDE8
:104B3000021ADDED021A41EE210AB0EE600A08F019
:104B4000A1FD8DED010A002011E0D4F8EC1001EB7D
:104B5000800191ED000ADDED010A20EE200AD4F873
:104B6000EC1001EB800181ED000A411CC8B2042861
:104B7000EBDB594890ED6F0ADDED040A20EE200AC8
:104B8000F0EE000A80EE201AF834A06880ED041AD6
:104B9000514890ED6F0ADDED030A20EE200AF0EE99
:104BA000000A80EE201AA06880ED051A4A4890EDB0
:104BB0006F0ADDED050AF1EE600A20EE200AF0EE44
:104BC000000A80EE201AA06880ED0A1A424890ED93
:104BD0006F0ADDED020A20EE200AF0EE000A80EEF8
:104BE000201AA06880ED0B1A3B4890ED6F0ADDEDAE
:104BF000020AF1EE600A20EE200AF0EE000A80EED2
:104C0000201AA06880ED101A334890ED6F0ADDED90
:104C1000050AF1EE600A20EE200AF0EE000A80EEAE
:104C2000201AA06880ED111A2B4890ED6F0ADDED77
:104C3000030A20EE200AF0EE000A80EE201AA06897
:104C400080ED161A244890ED6F0ADDED040AF1EEAE
:104C5000600A20EE200AF0EE000A80EE201AA0681A
:104C600080ED171A206890ED1C0A1B48D0ED740ADD
:104C700080EE201A206880ED1C1A206890ED230A2F
:104C80001548D0ED740A80EE201A206880ED231AB2
:104C900054F8F80990ED1C0ADFED100AB4EEE00AB2
:104CA000F1EE10FA05DD9FED0D0AD4F8F80080ED65
:104CB0001C0AD4F8F80090ED230ADFED080AB4EEE0
:104CC000E00AF1EE10FA05DD9FED040AD4F8F800D1
:104CD00080ED230A06B010BD0069002000401C468C
:104CE00010B52DED068BF0EE408AB0EE609AF0EE36
:104CF000419AB0EE618AB0EE42AAF0EE62AA0120BB
:104D00003B4908700846C0ED6C8A80ED6D9AC0ED95
:104D10006E9A9FED380A80ED730A002081F8380101
:104D20000021334AC2F84011C2F84411C2F84801C8
:104D3000C2F84C01104680ED6FAAB7EE000AB4EE3F
:104D4000C08AF1EE10FA03DDB7EE000AB0EE408A39
:104D5000274880ED748A032300220621001D00F0FD
:104D6000F7FF254B01221146A3F1080007F01DFEB5
:104D7000B7EE000A1E48D0F8EC0080ED000A9FED67
:104D80001F0A1B48D0F8EC0080ED010A9FED1B0ABA
:104D90001748D0F8EC0080ED020A9FED180A14487D
:104DA000D0F8EC0080ED030A15491148C0F8D01086
:104DB0001449C0F8D4101449C0F8D8101349C0F8E9
:104DC000DC10012180F82E1080F82F10014690226F
:104DD000D1F804010E49FBF73EFB05499022D1F8BA
:104DE000FC000C49FBF737FBBDEC068B10BD000047
:104DF0000069002077CC2B32C86A00200000000038
:104E0000194E0008D94A00084D4E00081D550008EB
:104E1000C40801084804002010B5044654F8F81FDF
:104E200090220748FBF717FB48220648616AFBF708
:104E300012FB6169F83C48220348FBF70CFB10BDEC
:104E400048040020E06A0020286B00201FB50446BB
:104E500054F8EC0F90ED000AF0EE000A20EE200A64
:104E60008DED030A206890ED010AF0EE000A20EEB5
:104E7000200A8DED020A206890ED020AF0EE000A89
:104E800020EE200A8DED010A206890ED030AF0EE75
:104E9000000A20EE200A8DED000A14F8DE2C284BC3
:104EA0001B885A4314F8E03C02FB03F1206AFBF72D
:104EB00026FB9DED010AB1EE400A206A80ED000A52
:104EC0009DED000A206A80ED010A9DED030AB1EE16
:104ED000400A206A80ED020A9DED020A206A80EDF8
:104EE000030A9DED020A206A80ED060A9DED030A81
:104EF000206A80ED070A9DED000A206A80ED080A0D
:104F00009DED010A206A80ED090A9DED030A206AE1
:104F100080ED0C0A9DED020AB1EE400A206A80ED98
:104F20000D0A9DED010AB1EE400A206A80ED0E0ADD
:104F30009DED000A206AEC3C80ED0F0A1FBD0000C9
:104F40004404002000B52DED068B85B0F0EE409AAC
:104F5000B0EE60AAF0EE41AAB0EE618AF0EE428AAD
:104F6000B0EE629AFE4890ED580A39EEC00A80ED24
:104F70005B0A90ED590A3AEE400A80ED5C0A90ED2A
:104F80005A0A3AEEC00A80ED5D0A90ED5B0AF6EE31
:104F9000000A20EE200AD0ED6F0A20EE200A8DEDE7
:104FA000040A90ED5C0AF6EE000A20EE200AD0ED2D
:104FB0006F0A20EE200A8DED030A90ED5D0AF6EEF1
:104FC000000A20EE200AD0ED6F0A20EE200A8DEDB7
:104FD000020A01469022D1F80401E249FBF73BFAAC
:104FE0009DED040AB1EE400ADD48D0F8040180EDE1
:104FF000010A9DED030AB1EE400AD948D0F8040138
:1050000080ED020A9DED020AB1EE400AD448D0F8C4
:10501000040180ED030A9DED040AD148D0F8040193
:1050200080ED060A9DED020ACD48D0F8040180ED1E
:10503000080A9DED030AB1EE400AC948D0F8040100
:1050400080ED090A9DED030AC548D0F8040180ED02
:105050000C0A9DED020AB1EE400AC148D0F80401E5
:1050600080ED0D0A9DED040ABD48D0F8040180EDE5
:105070000F0A9DED020ABA48D0F8040180ED120A29
:105080009DED030AB648D0F8040180ED130A9DEDAA
:10509000040AB1EE400AB248D0F8040180ED140AC7
:1050A000AF48D0F84811D0F84C010023594058407F
:1050B000014312D1AA4880ED5E8AC0ED5F8A80ED7F
:1050C000609AD0F84821D0F84C01521C40F1000001
:1050D000A349C1F84821C1F84C01A14890ED5E0AEE
:1050E000D0ED640A60EE200A90ED6F0A90ED641A2C
:1050F00030EE011A80EE810AD0ED6F0A90ED641A4D
:1051000070EE810A90ED6F1A21EE081AC1EE201A96
:1051100030EE210A80ED5E0A90ED5F0AD0ED640A60
:1051200060EE200A90ED6F0A90ED641A30EE011ADD
:1051300080EE810AD0ED6F0A90ED641A70EE810A5C
:1051400090ED6F1A21EE281AC1EE201A30EE210AD6
:1051500080ED5F0A90ED600AD0ED640A20EE200A2F
:10516000D0ED6F0A90ED641A30EE811AC0EE010A9C
:1051700090ED6F0A90ED641A30EE010A90ED6F1A0F
:1051800021EE091AC1EE001A30EEA10A80ED600A84
:10519000D0ED5E0A60EEA00A90ED5F1AD0ED5F1AC6
:1051A00041EE210A90ED601AD0ED601A41EE210A1D
:1051B000B0EE600A07F0BCF9694880ED660A90ED30
:1051C000660AF7EE000A80EE801A8DED011A90ED66
:1051D0005E0ADDED010A20EE200A806880ED000AFB
:1051E0005F4890ED5F0ADDED010A20EE200A80683D
:1051F00080ED010A5A4890ED600ADDED010A20EECB
:10520000200A806880ED020A5548D0ED5B0A60EE06
:10521000A00A90ED5C1AD0ED5C1A41EE210A90EDE7
:105220005D1AD0ED5D1A41EE210AB0EE600A07F07A
:105230007FF94B4880ED650A90ED650ADFED4A0A7B
:10524000B4EEE00AF1EE10FA16D290ED660ADFED48
:10525000470AB4EEE00AF1EE10FA0DDD90ED660AB1
:10526000DFED430AB4EEE00AF1EE10FA04D20120B9
:105270003B4981F8390103E00020394981F83901BF
:10528000374890ED6C0AD0ED6F0A20EE200AD0F876
:10529000180180ED000A324890ED6C0AD0ED6F0ADB
:1052A00020EE200AD0F8180180ED070A2C4890ED76
:1052B0006C0AD0ED6F0A20EE200AD0F8180180EDBC
:1052C0000E0A274890ED6C0AD0ED6F0A20EE200AF6
:1052D000D0F8180180ED150A214890ED6D0AD0ED47
:1052E0006F0A20EE200AD0F8180180ED1C0A1C4835
:1052F00090ED6D0AD0ED6F0A20EE200AD0F818016B
:1053000080ED230A164890ED6E0AD0F81C0180ED5E
:10531000000A134890ED6E0AD0F81C0180ED040AD3
:105320000F4890ED6E0AD0F81C0180ED080A0C4879
:10533000001D01F0D7F90A48406890ED000A0848BE
:1053400080ED540A406890ED010A054880ED550A49
:10535000406890ED020A024880ED560A406809E074
:1053600000690020C40801089A99993ECDCC1441E7
:10537000CDCC244190ED030A624880ED570AD0ED70
:10538000551A90ED552AB6EE001A01EEC21AD0ED6C
:10539000561A90ED562A01EEC21AF0EE410A90ED2F
:1053A000541AD0ED551A21EE211AD0ED561A90ED6F
:1053B000572A01EE821AB0EE410A00F5D07007F0CC
:1053C00095F9504890ED680ADFED4F0A20EE200A6B
:1053D00080ED680AD0ED550A90ED571A60EE810A0B
:1053E00090ED541AD0ED561A41EE610AB8EE001A4B
:1053F00060EE810AB0EE600A06F06CFDDFED420A55
:1054000020EE200A3F4880ED690AD0ED561A90ED53
:10541000562AB6EE001A01EEC21AD0ED571A90EDD8
:10542000572A01EEC21AF0EE410A90ED551AD0ED5E
:10543000561A21EE211AD0ED541A90ED572A01EE9A
:10544000821AB0EE410A00F5D47007F04FF92D48EA
:1054500090ED6A0ADFED2C0A20EE200A80ED6A0A40
:10546000406890ED040A274880ED580A406890EDA6
:10547000050A244880ED590A9FED240A80ED5A0A56
:1054800090ED6A0AD0ED760A30EE600ADFED200A70
:10549000B4EEE00AF1EE10FA07DDB0F8D401401ED8
:1054A00000B21849A1F8D40114E0164890ED6A0A38
:1054B000D0ED760A30EE600ADFED160AB4EEE00AAF
:1054C000F1EE10FA06D2B0F8D401401C00B20D493A
:1054D000A1F8D4010B4890ED6A0AB0F9D40100EEAE
:1054E000900AF8EEE00A9FED0C1A01EE200A05483A
:1054F00080ED6B0A90ED6A0A80ED760A05B0BDEC8E
:10550000068B00BD00690020E12E6542000000000E
:1055100000003443000034C30000B44330B52DED27
:10552000028B85B0044604F1800104F1780007F095
:10553000EAFB84F8C800B4F87800A4F8A8005A2060
:10554000015BAA20015304F1A80204F1580104F1FF
:10555000780007F08BFB84F8C800B4F8A800A4F822
:10556000B0008220015BB220015304F1B00204F1CB
:10557000800104F1A80007F079FB84F8C800B4F8B2
:105580009000A4F8A0009220015BA220015304F136
:10559000A00204F1900104F1B00007F0F1F984F8E1
:1055A000C80004F1B00104F1A00007F003FAAC3424
:1055B0002077206C90ED000A8DED040A206C90EDB0
:1055C000010A8DED030A206C90ED020A8DED020AAE
:1055D000206C90ED030A8DED010A34F8340CA081A3
:1055E000AC3C0121BA2001539DED030ADDED010A17
:1055F00020EE200ADDED040A9DED021A00EEC10A3C
:10560000F0EE000A20EE200AD4F82C0180ED000A0A
:105610009DED040ADDED030A20EE200ADDED020A0D
:105620009DED011A00EE810AF0EE000A20EE200A3C
:10563000D4F82C0180ED010A9DED040ADDED040A89
:1056400020EE200ADDED030A9DED031A00EEC10AEB
:10565000DDED020A9DED021A00EEC10ADDED010A40
:105660009DED011A00EE810AD4F82C0180ED020AAA
:10567000002512E0D4F82C0100EB850090ED000A23
:10568000B0EEC00AB0EE408A07F038F9D14800EB1E
:10569000850080ED000A681CC5B2032DEADBB4F872
:1056A0004800A4F8C0000121C220015304F1C00247
:1056B00004F1B80104F1480007F010FB84F8C800B9
:1056C000B4F8C000A4F8A8000121AA20015304F1F5
:1056D000A80204F1C00104F1B00007F0C7FAB83421
:1056E0002074012020802189B83CBA20015304F1A4
:1056F000B80104F1C00007F006FB84F8C800B54A01
:105700003C3204F1A80104F1B80007F0AFFA84F8C4
:10571000C800B14890ED720AD0ED730AB6EE001AD7
:1057200060EE810AB4EEE00AF1EE10FA03D2012035
:10573000A94981F83801A84890ED720AD0ED730AA2
:10574000B4EEE00AF1EE10FA46DD90F838010028D8
:1057500042D0A14890F8390168B19F48D0F8402163
:10576000D0F84401521C40F100009B49C1F840218F
:10577000C1F8440105E00021974AC2F84011C2F87F
:105780004411954800F5A0700CC80020D2F13201F8
:10579000984106D20020904981F8380184F82C0005
:1057A0004BE0237B8D4D2D8803FB05F2D4E93A01B4
:1057B000FAF751FE237B894D2D886B43257B03FB34
:1057C00005F2D4E93E01FAF746FE012084F82C00E8
:1057D00005B0BDEC028B30BD7F4890ED720AD0ED74
:1057E000730A9FED7F1A60EE810AB4EEE00AF1EED3
:1057F00010FA14DD90F8380188B1774890ED730AFB
:10580000D0ED720A30EE600AD0ED730A9FED751A82
:1058100060EE810A80EE201A80ED671A04E0B7EE90
:10582000000A6D4880ED670A00216B4AC2F84011FA
:10583000C2F84411002084F82C00B4F85800A4F8F1
:10584000A8008220015BAA20015304F1A80204F100
:10585000800104F1580007F009FA84F8C80004F147
:10586000980204F1B00104F1A80007F0FFF984F8F0
:10587000C800002012E0D4F81C1101EB800191ED6A
:10588000000A5549D1ED670A20EE200AD4F81C1110
:1058900001EB800181ED000A411CC8B2B4F89810F8
:1058A0009A22125B51438142E5DC042025E000216D
:1058B0001FE0021F474B03EB8202D2ED000A9FED6F
:1058C0004A1A80EE810A00EB40030B44D4F81C21F5
:1058D00002EB8302D2ED000A20EE200A00EB400327
:1058E0000B44D4F81C2102EB830282ED000A4A1C0F
:1058F000D1B20329DDDB411CC8B20628D7DBB4F8DE
:105900009800A4F8B8000121BA20015304F1B802AC
:1059100004F1C00104F1980007F0A8F984F8C80068
:105920002D4890F83801E0B304203FE0BC2109592C
:1059300001EB800191ED000A2749D1ED6F0A9FED3F
:105940002B1A60EE810AB4EEE00AF1EE10FA0BDDDC
:1059500091ED6F0ADFED250A20EE200ABC210959DE
:1059600001EB800181ED000ABC21095901EB8001A6
:1059700091ED000A1849D1ED6F0A9FED1D1A60EEF6
:10598000810AB4EEE00AF1EE10FA0DD291ED6F0A41
:10599000DFED170A20EE200ABC21095901EB800136
:1059A00000E005E081ED000A411CC8B20628BDDB1D
:1059B0009FED100ABC20005980ED030A04F130026B
:1059C00004F1B80104F1380006F0DAFF84F8C800E9
:1059D00000BFFDE6846A0020006900204404002026
:1059E000CDCCCC3D6666663FDA0FC93F0AD7233C73
:1059F0000AD723BC0000000010B51148D0ED000A02
:105A0000104890ED000A104802F058FD0E4890ED45
:105A1000080ABCEEC00A0D4880ED000A0A4890ED65
:105A2000080AB5EEC00AF1EE10FA02D200200749CA
:105A300008600648006806490968086410BD00004F
:105A4000E8040020E4040020706B00200005002022
:105A5000840A002000F008F800BF00F027F80120B9
:105A600008F02AFFF9E7000010B5DFED0C2A9FEDE2
:105A70000C2AF7EE001A9FED0B1ADFED090AB2EEC1
:105A8000040AFFF72DF99FED080A01F0CDFF00BFD2
:105A9000FAF705FE0028FBD110BD00000000000051
:105AA0006F12833A8096184B00007A4410B500BFFD
:105AB000874A88498848FAF701FE88480078C8B9BB
:105AC00086480078401C854908708248D0ED021A4B
:105AD000B0EE611AD0ED011AF0EE610AD0ED001AB5
